:020000040800F2
:1000000048200020010C00087D0200087F02000843
:1000100083020008870200088B020008000000002D
:100020000000000000000000000000008F02000837
:1000300091020008000000009302000895020008E9
:100040001B0C00081B0C00081B0C00081B0C0008F4
:100050001B0C00081B0C00081B0C00081B0C0008E4
:100060001B0C00081B0C00081B0C00081B0C0008D4
:100070001B0C00081B0C00081B0C00081B0C0008C4
:100080001B0C00081B0C00081B0C00081B0C0008B4
:100090001B0C00081B0C00081B0C00081B0C0008A4
:1000A0001B0C00081B0C00081B0C00081B0C000894
:1000B00005050008C52C0008810500081B0C000878
:1000C0001B0C00081B0C00081B0C00081B0C000874
:1000D0001B0C0008772C0008A10B00081B0C000863
:1000E0001B0C00081B0C00081B0C000800F002F899
:1000F00000F05AF80AA090E8000C82448344AAF168
:100100000107DA4501D100F04FF8AFF2090EBAE865
:100110000F0013F0010F18BFFB1A43F0010318473B
:10012000D03D0000F03D00000A444FF0000C10F8F4
:10013000013B13F0070408BF10F8014B1D1108BF65
:1001400010F8015B641E05D010F8016B641E01F805
:10015000016BF9D113F0080F1EBF10F8014BAD1C55
:100160000C1B09D16D1E58BF01F801CBFAD505E073
:1001700014F8016B01F8016B6D1EF9D59142D6D3CD
:10018000704700000023002400250026103A28BFF5
:1001900078C1FBD8520728BF30C148BF0B607047F9
:1001A0001FB51FBD10B510BD03F0E7F81146FFF7EE
:1001B000F7FF00F009F803F005F903B4FFF7F2FFC9
:1001C00003BC00F03FFC000000F0CEFB00F034FC6C
:1001D00000F050F94FF4165000F091FC41F61F4129
:1001E000312000F061F941F61F41312000F09FF904
:1001F00000F005FB4FF4165002F0B3FC00F02CFBAE
:100200002FE00A21002000F094FB164908800846E0
:10021000008803F017FC83464FF0814103F026FC71
:10022000824603F061FB06464FF066320E4B03F048
:100230005DFA044600220D4B03F000F9804603F0FE
:10024000CBF80B490860084601680A4803F00EFC29
:100250000546002103F074FB044603F0D3FB064976
:100260000860CEE70000002066664A3F0000264096
:100270000400002000007A4408000020704700BFFE
:10028000FEE700BFFEE700BFFEE700BFFEE77047E6
:1002900070477047704700000CB500200190009037
:1002A0006B48006840F480306949086000BF6848C6
:1002B000006800F4003000900198401C0190009804
:1002C00018B90198B0F5A06FF1D16148006810F439
:1002D000003F02D00120009001E000200090009833
:1002E000012842D15B48006840F01000594908607D
:1002F0000846006820F0030008600846006840F0E7
:100300000200086052484068514948600846406809
:1003100048600846406840F480604860084640688D
:1003200020F47C1048600846406840F4E8104860BB
:100330000846006840F08070086000BF44480068CC
:1003400010F0007FFAD04248406820F00300404996
:1003500048600846406840F00200486000BF3C48E2
:10036000406800F00C000828F9D10CBD10B5FFF76B
:1003700093FF10BD10B53648006840F001003449C5
:1003800008600846406834490840314948600846DA
:100390000068324908402E4908600846006820F489
:1003A000802008600846406820F4FE0048604FF452
:1003B0001F008860FFF7DAFF4FF0006028490860EF
:1003C00010BD10B5002100200022214B5B6803F016
:1003D0000C0121B1042906D0082928D107E0214BBE
:1003E000214C236027E01F4B1F4C236023E0184B58
:1003F0005B6803F47010164B5B6803F480320223D1
:1004000003EB904022B9194B4343174C23600DE096
:100410000F4B5B6813F4003F04D0144B4343124C62
:10042000236003E00F4B43430F4C236003E00D4B6D
:100430000D4C236000BF00BF054B5B68C3F3031383
:100440000B4CE15C084B1B68CB40074C236010BD94
:1004500000100240002002400000FFF8FFFFF6FEFF
:1004600008ED00E000127A000C00002000093D00B9
:100470001000002008B50121082000F065FF0120D0
:10048000ADF8000010208DF8030003208DF8020065
:100490006946044800F0A2FC0121024800F049FD31
:1004A00008BD0000000C01407FB505460C46012147
:1004B000084600F056FFADF80850ADF804400020A3
:1004C000ADF80A00ADF8060001A94FF0804001F038
:1004D0007BFA01221146900701F0EDFD1C208DF8FA
:1004E000000003208DF8010002208DF80200012099
:1004F0008DF80300684600F0A8FB0121880701F091
:10050000BFFD7FBD10B50121880702F082F868B1F8
:100510000121880702F08EF82848006808B90120F8
:1005200000E000202549086002F0A0FD10BD7FB565
:1005300005460C460121042000F013FFADF80850D9
:10054000ADF804400020ADF80A00ADF8060001A99E
:100550001B4801F039FA01221146194801F0ABFDA0
:100560001E208DF8000000208DF8010002208DF87B
:10057000020001208DF80300684600F066FB7FBD95
:1005800010B501210E4802F044F8B0B101210C4829
:1005900002F050F800210A4801F072FD00200949DC
:1005A000088032220849094802F024FE3221064818
:1005B00002F065FE054800F030F810BD8081214250
:1005C000000800404602002044030020760300207B
:1005D00070B502460C46FF25FF2309E012F8010B17
:1005E00080EA03019148405C80EA05039048455C3D
:1005F0002000A4F10106B4B2F0D143EA052070BD99
:1006000010B532218B4802F03AFE10BD10B50446F9
:100610003221204602F033FE10BD01460878422800
:100620001BD148784D2818D1487B0A7B40EA02202C
:1006300000EB80004004000C7F4A1080C87B8A7B5E
:1006400040EA022000EB80004004000C7B4A10804E
:1006500000207B4A107001207047794802780078AA
:10066000401C774B1870032A07DD0020724A108067
:10067000724A108003201A4610700020ECE770B513
:10068000054600242878012850D1687803284DD1E8
:1006900001206C490870032048700C2088700020ED
:1006A000C870087148718871C87108726248008802
:1006B00000EB8000C0F3D71048725F48007800EB71
:1006C00080004006000E88720020C87208735B48E4
:1006D000008800EB8000C0F3D710487357480078BB
:1006E00000EB80004006000E88730F215548FFF78D
:1006F0006FFF55490880084600785249C873524830
:100700000088000A087400BF0CE04E48015D4F48A5
:1007100000F0BEFF00BF40214C4801F027F801283F
:10072000F9D1641C112CF0DB002070BD0120FCE726
:1007300070B500250024FFF763FFEF203D490870E6
:10074000E820487000208870EF20C870042500BFA2
:100750000DE03848015D3E4800F09AFF00BF40219F
:100760003B4801F003F80128F9D1601CC4B2AC4247
:10077000EFDB70BD70B5054600260024FFF740FF93
:10078000EF202C490870E820487008468570EF205B
:10079000C870042600BF0DE02648015D2C4800F01B
:1007A00077FF00BF40212A4800F0E0FF0128F9D17F
:1007B000601CC4B2B442EFDB70BD70B500250024EC
:1007C000FFF71EFFEF201B490870E8204870E72064
:1007D0008870EF20C870042500BF0DE01548015D4A
:1007E0001B4800F055FF00BF4021194800F0BEFF34
:1007F0000128F9D1601CC4B2AC42EFDB70BD08B572
:100800000121042000F0A0FD6020ADF800001020C0
:100810008DF8030003208DF8020069460D4800F0B2
:10082000DDFA60210B4800F084FB08BD3B0100208D
:100830003B000020AE0200203600002038000020DF
:100840003A000020120300203C0200200044004037
:10085000003801400008014000B587B001214FF485
:10086000047000F071FD4FF4004000F0D4FC012052
:10087000ADF8040000208DF8070001A9384800F009
:10088000ADFA0220ADF8040000208DF8070001A9A0
:10089000334800F0A3FA0420ADF8040000208DF8DE
:1008A000070001A92E4800F099FA2E4801F0C6FE73
:1008B000002002908DF80C008DF80D004FF46020A0
:1008C00004900020059001208DF8180002A9254809
:1008D00001F0DBFE0121234801F003FF214801F074
:1008E00022FF00BF1F4801F023FF0028FAD11D4856
:1008F00001F028FF00BF1B4801F029FF0028FAD1B2
:1009000007B000BD10B50446072301222146154853
:1009100001F053FF0121134801F023FF00BF022122
:10092000104802F08FF80028F9D00E4801F0ACFF13
:1009300010BD2DE9F04107460C460025002608E0D1
:100940003846FFF7DFFF0544052000F049F8701C2A
:10095000C6B2A642F4DBB5FBF4F080B2BDE8F0818C
:10096000001001400024014010B56FF0040000F0B9
:10097000B7F92D4800682D49B0FBF1F02C490870FB
:100980000846007800EB4001C1EBC0104FF6FF7144
:1009900001EAC0002749088010BD0146244A1278A8
:1009A0004A434FF0E0235A6100229A611A461269C5
:1009B00042F001021A6100BF4FF0E022106910F00E
:1009C000010F02D010F4803FF6D04FF0E022126900
:1009D00022F001024FF0E0231A6100229A61704771
:1009E0000146144A12884A434FF0E0235A6100221C
:1009F0009A611A46126942F001021A6100BF4FF073
:100A0000E022106910F0010F02D010F4803FF6D000
:100A10004FF0E022126922F001024FF0E0231A6148
:100A200000229A61704700000C00002000127A003A
:100A30003E0200204002002010B54FF4A06000F0FC
:100A4000FFF810BD014600BF704700BF664A12881C
:100A500012F0400FFAD0C2B2634B1B1D1A807047D0
:100A600010B586B00446012144F2040000F06CFC8D
:100A70005D4800F0D1FC4FF40070ADF81400032085
:100A80008DF8160018208DF8170005A9574800F0BA
:100A9000A5F94FF48060ADF8140004208DF817001C
:100AA00005A9524800F09AF925208DF8000003208E
:100AB0008DF801008DF8020001208DF803006846D2
:100AC00000F0C3F801940020ADF80800ADF80A006A
:100AD000ADF80C00ADF810000C20ADF80E0001A927
:100AE000414800F0DCFC012240F225513E4800F074
:100AF0006EFD01213C4800F05EFD06B010BD10B552
:100B000086B004460121042000F01EFC01214804A7
:100B100000F027FC364800F07FFC0420ADF81400FC
:100B200003208DF8160018208DF8170005A92F480E
:100B300000F054F90820ADF8140004208DF81700D7
:100B400005A92A4800F04AF926208DF80000022065
:100B50008DF8010003208DF8020001208DF80300BC
:100B6000684600F072F801940020ADF80800ADF876
:100B70000A00ADF80C00ADF810000C20ADF80E0026
:100B800001A91B4800F08BFC012240F225511848B6
:100B900000F01DFD0121164800F00DFD06B010BD4E
:100BA00010B540F22551124800F0F6FDD8B100BF53
:100BB0000F4800F071FDC4B20E480F490988445433
:100BC00001210E4801F05CFA00210C4801F0ECFC18
:100BD00009480088401C08490880084600883128D8
:100BE00001DD0020088010BD0038014000080140F0
:100BF000004400404403002046020020000800405A
:100C00000948804709480047FEE7FEE7FEE7FEE7A0
:100C1000FEE7FEE7FEE7FEE7FEE7FEE704480549DC
:100C2000054A064B7047000075030008ED000008F8
:100C3000481A002048200020481C0020481C0020A2
:100C400031490143314A1160704770B500210023DA
:100C50000F22C4780CB32D4C246804F4E064C4F56E
:100C6000E064210AC1F10403CA40447804FA03F1A4
:100C70008478144021430901254C0678A155047855
:100C800004F01F050124AC4005786D114FF0E026FB
:100C900006EB8505C5F8004109E0047804F01F055E
:100CA0000124AC401B4D0678761145F8264070BDF6
:100CB000194A0A400243154B1B1F1A60704739B18D
:100CC000124A121D12680243104B1B1D1A6006E0E7
:100CD0000E4A121D126882430C4B1B1D1A6070478E
:100CE000042808D14FF0E021096941F004014FF0D8
:100CF000E022116107E04FF0E021096921F00401D1
:100D00004FF0E022116170470000FA050CED00E0A1
:100D100000E400E080E100E080FFFF1F10B5044622
:100D2000CA48844208D10121042000F027FB002199
:100D3000042000F023FB46E0C548844208D101218D
:100D4000082000F01BFB0021082000F017FB3AE010
:100D5000C048844208D10121102000F00FFB00217F
:100D6000102000F00BFB2EE0BB48844208D101218B
:100D7000202000F003FB0021202000F0FFFA22E0F9
:100D8000B648844208D10121402000F0F7FA002142
:100D9000402000F0F3FA16E0B148844208D1012166
:100DA000802000F0EBFA0021802000F0E7FA0AE052
:100DB000AC48844207D10121801500F0DFFA002100
:100DC000A01500F0DBFA10BD10B50121084600F0B7
:100DD000D5FA0021012000F0D1FA10BD2DE9F04133
:100DE000024600250026002000230024002791F859
:100DF00003C00CF00F0591F803C01CF0100F03D0D6
:100E000091F802C04CEA050591F800C0BCF1000F52
:100E100031D0146800202BE04FF0010C0CFA00F3E5
:100E2000B1F800C00CEA03069E4220D183004FF0C7
:100E30000F0C0CFA03F7BC4305FA03FC4CEA04045C
:100E400091F803C0BCF1280F06D14FF0010C0CFA49
:100E500000FCC2F814C00AE091F803C0BCF1480FCE
:100E600005D14FF0010C0CFA00FCC2F810C0401C78
:100E70000828D1D31460B1F800C0BCF1FF0F34DDF5
:100E8000546800202EE000F1080C4FF0010808FA29
:100E90000CF3B1F800C00CEA03069E4221D1830096
:100EA0004FF00F0C0CFA03F7BC4305FA03FC4CEAB5
:100EB000040491F803C0BCF1280F05D100F1080C1F
:100EC00008FA0CF8C2F8148091F803C0BCF1480F7E
:100ED00007D100F1080C4FF0010808FA0CF8C2F82D
:100EE0001080401C0828CED35460BDE8F0814FF636
:100EF000FF710180022181700421C1707047024698
:100F0000002093680B4201D0012000E000207047D0
:100F10000146886880B2704702460020D3680B42C1
:100F200001D0012000E0002070470146C86880B26F
:100F3000704701617047416170470AB1016100E08B
:100F400041617047C16070474FF480320A4382614B
:100F50008161826182698269704702460020424B4A
:100F600018684FF68073184040EA021008433E4B61
:100F7000186070473D49C8617047F0B50A460023C4
:100F800000240021002500F00046B6F1004F02D1F8
:100F9000354EF16901E0344E7168C0F3034583B208
:100FA00000F44016B6F5401F08D121F070612E4EB6
:100FB000766826F070662C4F7E6012E000F4801692
:100FC000B6F5801F06D1032606FA05F4A14341F0C9
:100FD000706106E0460D360103FA06F6B14341F0B2
:100FE000706122B1460D360103FA06F6314300F076
:100FF0000046B6F1004F02D11B4EF16101E01A4EDE
:101000007160F0BD30B500228B071C0F0F2303FA6F
:1010100004F2154B08338C1053F824309343124CD0
:1010200008348D1044F8253023468C1053F82430B2
:101030008C07240F00FA04F423430B4C08348D1062
:1010400044F8253030BD0A49086070470008014067
:10105000000C014000100140001401400018014044
:10106000001C01400020014000000140000020421F
:10107000DC002042DD48006840F00100DB490860E8
:1010800008464068DA490840D84948600846006880
:10109000D8490840D54908600846006820F48020F7
:1010A00008600846406820F4FE0048604FF41F00C6
:1010B00088607047CD49096821F48031CB4A1160BE
:1010C0001146096821F480211160B0F5803F03D0FA
:1010D000B0F5802F0ED106E0C449096841F4803193
:1010E000C24A116007E0C149096841F4A021BF4A22
:1010F000116000E000BF00BF704710B5014600223C
:10110000002300204A11012A02D1B84C236806E0CE
:10111000022A02D1B54C236A01E0B44C636A01F0A3
:101120001F02012494401C4201D0012000E0002055
:1011300010BD38B5002000900024002500BF3120EC
:10114000FFF7DBFF05460098401C00900098B0F5C3
:10115000A06F01D0002DF2D03120FFF7CEFF08B1F3
:10116000012400E00024204638BD014600209F4AAB
:10117000106820F0F80040EAC100106070479E49F6
:101180000860704702460020984B586820F47C1095
:1011900042EA01031843954B586070479649086628
:1011A000704701460020914A506820F00300084330
:1011B000506070478D48406800F00C007047014651
:1011C00000208A4A506820F0F000084350607047C1
:1011D00001460020854A506820F4E06008435060D2
:1011E000704701460020814A506820F4605040EA70
:1011F000C1005060704729B17C4A527A02437B4B50
:101200005A7204E0794A527A8243784B5A72704794
:101210007A490860704701460020744A506820F4FB
:1012200040400843506070470021754A11706F4A72
:1012300082F82010012802D0042808D103E00121FF
:101240006F4A117004E005216D4A117000E000BF83
:1012500000BF70476B49086070476449096A0143E1
:10126000624A11627047674944390860704730B577
:1012700000210022002400235C4D6D6805F00C0164
:1012800021B1042905D0082923D105E05E4D056070
:1012900022E05D4D05601FE0544D6D6805F470124D
:1012A000524D6D6805F48034022505EB92421CB95D
:1012B000564D554305600BE04C4D6D6815F4003FED
:1012C00003D0524D5543056002E04F4D5543056034
:1012D00002E04D4D056000BF00BF444D6D6805F054
:1012E000F00109094A4D6B5C0568DD4045603F4DE2
:1012F0006D6805F4E061090A454D6B5C4568DD40A9
:1013000085603A4D6D6805F46051C90A404D6B5CCB
:101310004568DD40C560354D6D6805F44041890B79
:101320003C4D6B5CC568B5FBF3F5056130BD29B17B
:101330002E4A526902432D4B5A6104E02B4A5269EE
:1013400082432A4B5A61704729B1284A9269024365
:10135000264B9A6104E0254A92698243234B9A61A5
:10136000704729B1214AD2690243204BDA6104E077
:101370001E4AD26982431D4BDA61704729B11B4A6C
:10138000D2680243194BDA6004E0184AD2688243FB
:10139000164BDA60704729B1144A12690243134BA5
:1013A0001A6104E0114A12698243104B1A617047B6
:1013B00014494039086070470F49C86470470B49A9
:1013C000C87170470948406A40F080700749486218
:1013D000704701460020054A92680A4201D0012068
:1013E00000E00020704701498872704700100240F9
:1013F0000000FFF8FFFFF6FE00004242D800424224
:10140000201002408004424200127A0000093D0090
:101410004C0200205C02002010B50446FB488442C8
:1014200009D101218803FFF7A9FF00214FF4804073
:10143000FFF7A4FF32E0F648844209D101214804B5
:10144000FFF7A9FF00214FF40030FFF7A4FF25E0CC
:10145000F048844209D101218804FFF79CFF002154
:101460004FF48020FFF797FF18E0EB48844209D142
:101470000121C804FFF78FFF00214FF40020FFF780
:101480008AFF0BE0E548844208D101210805FFF7F7
:1014900082FF00214FF48010FFF77DFF10BD2DE982
:1014A000F04786B005460E460024A24600BFA1467E
:1014B0000027B08900B100BF2F462C8A4CF6FF7080
:1014C0000440F08804432C82AC894EF6F3100440AB
:1014D000B08831890843718908430443AC81AC8AE0
:1014E0004FF6FF400440B0890443AC8201A8FFF7E7
:1014F000BEFEC648874202D1DDF810A001E0DDF84B
:101500000CA0A88910F4004F08D00AEBCA0000EB29
:101510000A1031684900B0FBF1F807E00AEBCA0095
:1015200000EB0A1031688900B0FBF1F86420B8FBC9
:10153000F0F004012009642101FB1089A88910F44E
:10154000004F08D0322000EBC900B0FBF1F000F0F2
:101550000700044308E0322000EB09106421B0FBCF
:10156000F1F000F00F0004432C8106B0BDE8F087D5
:101570004FF41651016000218180C18001810C214E
:10158000418100218181704710B502460020108AF8
:101590004FF2FF0318400B884C8823438C88234369
:1015A000CC8823431843108210BD00210180418064
:1015B0008180C180704721B1828942F400528281CA
:1015C00004E082894DF6FF731A4082817047F0B5BE
:1015D00003460024002600250020A1F510676A3F7D
:1015E00000D100BF1846C1F3421401F01F060127C5
:1015F00007FA06F5012C01D10C3004E0022C01D1D0
:10160000103000E014301AB107682F43076002E081
:101610000768AF430760F0BD1AB1838A0B4383822A
:1016200002E0838A8B4383827047028A4FF6F0730D
:101630001A400282028A0A430282704782894FF26C
:10164000FF731A40828182890A438281704721B1E7
:10165000828942F00202828104E082894FF6FD73A2
:101660001A4082817047028A4FF6DF731A40028265
:10167000028A0A430282704721B1028A42F4804200
:10168000028204E0028A4BF6FF731A40028270471E
:10169000C1F308028280704701468888C0F30800C1
:1016A0007047818941F0010181817047028BD2B27C
:1016B0000283028B42EA012202837047028B02F40A
:1016C0007F420283028B0A430283704721B1828AE0
:1016D00042F02002828204E0828A4FF6DF731A40D1
:1016E0008282704721B1828A42F01002828204E035
:1016F000828A4FF6EF731A408282704721B1828A44
:1017000042F00802828204E0828A4FF6F7731A40A0
:101710008282704721B1828942F40042828103E0D3
:101720008289C2F30E028281704721B1828A42F41B
:101730000062828204E0828A4FF2FF731A40828242
:101740007047828A4FF6FB731A408282828A0A436C
:101750008282704721B1828A42F00202828204E0D2
:10176000828A4FF6FD731A4082827047024600203B
:10177000B1F5007F00D100BF13880B4201D00120DA
:1017800000E00020704701F40072B2F5007F00D144
:1017900000BFCA430280704770B502460024002390
:1017A00000250020A1F510666A3E00D100BFC1F3FC
:1017B000421501F01F03012606FA03F3012D02D1A1
:1017C0009689334006E0022D02D1168A334001E0AB
:1017D000968A33400C12012606FA04F41688344027
:1017E00013B10CB1012000E0002070BD10B5002243
:1017F0000023A1F510646A3C00D100BF0A12012445
:101800009440A3B2DC43048010BD000000380140C6
:101810000044004000480040004C004000500040A0
:1018200010B50446FE48844208D10121C014FFF7D8
:10183000A5FD0021E014FFF7A1FDC4E0B4F1804F45
:1018400008D101210846FFF7A6FD00210120FFF77E
:10185000A2FDB8E0F348844208D101210220FFF73D
:101860009AFD00210220FFF796FDACE0EE4884428D
:1018700008D101210420FFF78EFD00210420FFF78D
:101880008AFDA0E0E948844208D101210820FFF741
:1018900082FD00210820FFF77EFD94E0E4488442A9
:1018A00008D101211020FFF776FD00211020FFF75D
:1018B00072FD88E0DF48844208D101212020FFF733
:1018C0006AFD00212020FFF766FD7CE0DA488442B3
:1018D00008D101214014FFF751FD00216014FFF7EA
:1018E0004DFD70E0D548844209D10121C804FFF7BD
:1018F00045FD00214FF40020FFF740FD63E0D04894
:10190000844209D101210805FFF738FD00214FF479
:101910008010FFF733FD56E0CA48844209D1012107
:101920004805FFF72BFD00214FF40010FFF726FDBF
:1019300049E0C548844208D101214020FFF72BFD32
:1019400000214020FFF727FD3DE0C048844208D138
:1019500001218020FFF71FFD00218020FFF71BFDE4
:1019600031E0BB48844208D101218015FFF713FD07
:101970000021A015FFF70FFD25E0B648844209D1EC
:1019800001210804FFF7FAFC00214FF48030FFF733
:10199000F5FC18E0B048844209D101214804FFF762
:1019A000EDFC00214FF40030FFF7E8FC0BE0AB4802
:1019B000844208D101218804FFF7E0FC00214FF4A4
:1019C0008020FFF7DBFC10BD00220288944B984278
:1019D0000ED0994B98420BD0B0F1804F08D0914B6C
:1019E000984205D0904B984202D0904B984204D137
:1019F0004FF68F731A404B881A438D4B984207D08D
:101A00008C4B984204D04FF6FF431A40CB881A43C0
:101A100002808B8883850B880385814B98420BD08D
:101A2000854B984208D08B4B984205D08A4B984200
:101A300002D08A4B984201D10B7A0386012383821C
:101A4000704770B5002400220023058C4FF6FE7607
:101A500035400584028C8388048B4FF68F752C40AB
:101A6000B51E2C400D882C43751E2A400D892A4333
:101A70004D882A436A4DA8420BD06F4DA84208D02A
:101A8000744DA84205D0744DA84202D0734DA842AF
:101A900013D14FF6F7752A404D892A434FF6FB754F
:101AA0002A408D882A434FF6FF652B404FF6FF559D
:101AB0002B408D892B43CD892B4383800483CD8894
:101AC0008586028470BD70B5002400220023058C39
:101AD0004FF6EF7635400584028C8388048B48F6F8
:101AE000FF752C404FF6FF452C400D884FF6FF76D2
:101AF00006EA05252C434FF6DF752A400D8906EAD4
:101B000005152A434D8806EA05152A43444DA84287
:101B100002D0494DA8421DD14FF67F752A404D890C
:101B20004FF6FF7606EA05152A434FF6BF752A40A1
:101B30008D8806EA05152A434FF6FF352B404FF2F4
:101B4000FF752B408D8906EA85052B43CD8906EA72
:101B500085052B4383800483CD880587028470BD6F
:101B600070B5002400220023058C4FF6FF66354037
:101B70000584028C8388848B4FF68F752C404FF63A
:101B8000FC752C400D882C434FF6FF552A400D89DB
:101B90004FF6FF7606EA05252A434D8806EA052515
:101BA0002A431F4DA84202D0234DA8421DD14FF217
:101BB000FF752A404D894FF6FF7606EA05252A4330
:101BC0004FF6FF352A408D8806EA05252A434EF652
:101BD000FF752B404DF6FF752B408D8906EA0515E4
:101BE0002B43CD8906EA05152B4383808483CD885A
:101BF0008587028470BD70B5002200230024058C07
:101C00004EF6FF7635400584038C8488828B48F637
:101C1000FF752A404FF6FF452A400D8820E000005E
:101C2000002C01400004004000080040000C00406F
:101C3000001000400014004000340140004C0140FE
:101C4000005001400054014000180040001C0040BA
:101C50000020004000400140004401400048014095
:101C60004FF6FF7606EA05252A434DF6FF752B4011
:101C70000D8906EA05352B434D8806EA05352B43C9
:101C8000FA4DA84202D0FA4DA84208D14BF6FF7592
:101C90002C408D894FF6FF7606EA85152C4384800B
:101CA0008283CD88A0F84050038470BD828B4FF2B0
:101CB000FF331A408283828B4FF6FF7303EA0123BE
:101CC0001A4382837047F0B50C4615460022002166
:101CD0000026078C4EF6FF7C07EA0C070784828BF0
:101CE000018C4FF6FF7707EA043640F6FF473A408B
:101CF0004FF6FF7707EA05273A434FF6FF7707EAE3
:101D000003373A43D94FB8420ED0D94FB8420BD01F
:101D1000B0F1804F08D0D74FB84205D0D64FB84267
:101D200002D0D64FB84206D14DF6FF77394046F47F
:101D30008057394305E047F6FF57394044F4805750
:101D4000394382830184F0BD828B4FF6F3731A40CE
:101D50008283828B0A4382837047F0B50C46154616
:101D6000002200210026078C4FF6FF6C07EA0C07C3
:101D70000784828B018C4FF6FF7707EA04264FF623
:101D80000C773A404FF6FF7707EA03172F433A43A1
:101D9000B64FB8420ED0B64FB8420BD0B0F1804F1C
:101DA00008D0B44FB84205D0B34FB84202D0B34FB9
:101DB000B84206D14FF6FF57394046F48077394391
:101DC00005E04FF2FF57394044F48077394382836E
:101DD0000184F0BD028B4FF2FF331A400283028B65
:101DE0004FF6FF7303EA01231A4302837047F0B5ED
:101DF0000C461546002200210026078C4FF6EF7C8A
:101E000007EA0C070784028B018C4FF6FF7707EA7D
:101E1000041640F6FF473A404FF6FF7707EA0337CC
:101E20003A434FF6FF7707EA05273A438F4FB84208
:101E30000ED08F4FB8420BD0B0F1804F08D08D4FED
:101E4000B84205D08C4FB84202D08C4FB84206D170
:101E50004FF6DF77394046F01007394305E04FF67B
:101E60005F77394044F01007394302830184F0BDA5
:101E7000028B4FF6F3731A400283028B0A430283EC
:101E80007047F0B50C46154600220021068C4FF62F
:101E9000FE773E400684028B018C4FF60C76324072
:101EA0007E1C06EA03162E433243704EB0420ED01B
:101EB0006F4EB0420BD0B0F1804F08D06D4EB042A3
:101EC00005D06D4EB04202D06C4EB04206D14FF6F6
:101ED000FD76314044F00106314305E04FF6F576DA
:101EE000314044F00106314302830184F0BD70B5F6
:101EF00005460C465D4885420ED05D4885420BD0B4
:101F0000B5F1804F08D05B48854205D05A488542DC
:101F100002D05A48854200D100E000BF208850B965
:101F20002389A28861882846FFF7ABFFE18828460D
:101F3000FFF79EFF25E0208804280AD12389A28884
:101F400061882846FFF753FFE1882846FFF742FFE4
:101F500017E0208808280AD12389A28861882846AA
:101F6000FFF7FBFEE1882846FFF7EEFE09E0238934
:101F7000A28861882846FFF7A6FEE1882846FFF779
:101F800095FE70BD2DE9F04105460C46002601275F
:101F9000608808B9022600E00026A088012801D147
:101FA000022700E001272088A0B92389A288618840
:101FB0002846FFF766FFE1882846FFF759FF238987
:101FC0003A4631462846FFF712FFE1882846FFF7D8
:101FD00001FF13E02389A28861882846FFF707FFE5
:101FE000E1882846FFF7F6FE23893A46314628461F
:101FF000FFF747FFE1882846FFF73AFFBDE8F08189
:102000000A884B881A438B881A43CB881A430B895A
:102010001A434B891A438B891A43A0F8442070470E
:102020004FF6FF71818000210180C18041800172E3
:1020300070470021018041808180C1800181418100
:102040008181C1817047002101804180012181800F
:102050000021C18001817047002101804180818081
:10206000C18001814181818170470000002C0140C5
:10207000003401400004004000080040000C004013
:1020800021B1028842F00102028004E002884FF68A
:10209000FE731A400280704731B1B0F8442042F418
:1020A0000042A0F8442005E0B0F84420C2F30E023C
:1020B000A0F8442070471AB183890B43838102E062
:1020C00083898B43838170478182704741EA020391
:1020D000A0F8483070471AB183890B43838102E02E
:1020E00083898B438381704701894FF6F8721140D1
:1020F000018170470A46002101894FF68F7319400C
:1021000011430181704730B504460D4629462046EB
:10211000FFF7F0FF208940F00700208130BD2DE956
:10212000F04104460D4616461F46602D06D13B463B
:10213000012231462046FFF75AFE05E03B460122C8
:1021400031462046FFF79DFE29462046FFF7D2FF85
:10215000208940F007002081BDE8F08130B50C46B1
:1021600000210189C9B24FF6FF7505EA0325154321
:1021700025432943018130BD2DE9F04105460E4636
:1021800017469846002443463A4631462846FFF70C
:10219000E5FF2C894FF6F870044044F007044FF631
:1021A0008F70044044F070042C81BDE8F081F0B5DC
:1021B00004460D4616461F463B46324629462046F3
:1021C000FFF7CCFF208940F480402081F0BD0185DD
:1021D000828270470A46002101884FF68F731940AA
:1021E000114301807047F0B50C4615461E4600218C
:1021F000002200230189028B038C4FF6F8773940C7
:1022000021434FF6FC473A4040F201173A434FF65C
:10221000DD773B404FF6FF7707EA06172F433B4336
:10222000018102830384F0BD0A460021018B4FF631
:102230008F7319401143018370470A460021018BB7
:1022400048F6FF7319404FF6FF7303EA0223194360
:10225000018370470A460021818B4FF68F73194026
:102260001143818370470A460021818B48F6FF7332
:1022700019404FF6FF7303EA022319438183704725
:1022800021B1028842F08002028004E002884FF609
:102290007F731A400280704721B1828842F00402A5
:1022A000828004E082884FF6FB731A408280704778
:1022B00021B1828842F00802828004E082884FF6D1
:1022C000F7731A408280704721B1828842F0010280
:1022D000828004E082884FF6FE731A408280704745
:1022E0000A460021018B4FF6F77319401143018311
:1022F00070470A460021018B4FF2FF7319404FF6D9
:10230000FF7303EA02231943018370470A46002141
:10231000818B4FF6F77319401143818370470A464A
:102320000021818B4FF2FF7319404FF6FF7303EAD0
:1023300002231943818370470A460021018B4FF61F
:10234000FB7319401143018370470A460021018B3A
:102350004FF6FF3319404FF6FF7303EA0223194388
:10236000018370470A460021818B4FF6FB731940A9
:102370001143818370470A460021818B4FF6FF335A
:1023800019404FF6FF7303EA022319438183704714
:102390000A460021018B4FF67F73194011430183D8
:1023A00070470A460021018BC1F30E014FF6FF73FF
:1023B00003EA02231943018370470A460021818BF7
:1023C0004FF67F7319401143818370470A460021FD
:1023D000818BC1F30E014FF6FF7303EA0223194309
:1023E000818370470A460021018C4FF6FD73194026
:1023F0001143018470470A460021018C4FF6F773A0
:1024000019401143018470470A460021018C4FF6A0
:10241000DF7319404FF6FF7303EA02131943018477
:1024200070470A460021018C4FF67F7319404FF622
:10243000FF7303EA02131943018470470A4600211F
:10244000018C4FF6FF5319404FF6FF7303EA022346
:102450001943018470470A460021018C4FF2FF7333
:1024600019404FF6FF7303EA0223194301847047B2
:102470000A460021018C4DF6FF7319404FF6FF7399
:1024800003EA023319430184704730B50023012465
:102490008C40A3B2048C9C430484048C02FA01F5A2
:1024A000ADB22C43048430BD30B5002304248C40ED
:1024B000A3B2048C9C430484048C02FA01F5ADB2EF
:1024C0002C43048430BD70B5034600200024184618
:1024D000183001258D40ACB21D8CA5431D8409B177
:1024E000082909D100EB6100056825F07005056039
:1024F0000568154305600EE00D1FC5F34E05284421
:10250000056825F4E045056005684FF6FF7606EAA4
:1025100002263543056070BD21B1028842F00202F7
:10252000028004E002884FF6FD731A400280704773
:1025300021B1028842F00402028004E002884FF6D2
:10254000FB731A400280704721B1828842F08002FA
:10255000828004E082884FF67F731A408280704741
:1025600002884FF6F7731A40028002880A430280FD
:10257000704782884FF68F731A40828082880A43A0
:102580008280704702894FF6F8731A4002810289EF
:102590000A430281704702894FF67F731A40028115
:1025A00002890A43028170478184704781857047A0
:1025B000818670470187704781877047A0F8401077
:1025C000704702884FF6FF431A40028002880A4390
:1025D000028070470146888E70470146088F704719
:1025E0000146888F70470146B1F8400070470146A8
:1025F000888C70470146088D704702460020138A78
:102600000B4201D0012000E000207047CA43028243
:10261000704730B50246002000230024158A05EAE1
:102620000103958905EA010413B10CB1012000E012
:10263000002030BDCA4302827047000010B5044636
:10264000FA48844208D101214015FEF797FE002187
:102650006015FEF793FE17E0F548844208D101218A
:102660000015FEF78BFE00212015FEF787FE0BE01C
:10267000F048844208D10121C803FEF77FFE002103
:102680004FF40040FEF77AFE10BD30B50246002040
:1026900000235068E84C20400D790C6844EA05247A
:1026A000204350609068E54C2040D1E902542C430F
:1026B0004D7944EA450420439060D06A20F47000CC
:1026C0000C7C641EE4B2234340EA0350D06230BD68
:1026D00000210160017141718160C16001210174BB
:1026E000704721B1826842F00102826003E0826893
:1026F00022F001028260704721B1826842F4807248
:10270000826003E0826822F480728260704710B5B4
:102710000023CBB21AB144681C43446002E0446811
:102720009C43446010BD816841F00801816070479E
:10273000014600208A6812F0080F01D0012000E055
:1027400000207047816841F00401816070470146B4
:1027500000208A6812F0040F01D0012000E0002060
:10276000704721B1826842F4A002826003E082686F
:1027700022F4A00282607047014600208A6812F4A9
:10278000800F01D0012000E00020704710B50A46FC
:1027900000210023416821F46041531E41EA433186
:1027A000416010BD21B1426842F40062426003E022
:1027B000426822F4006242607047F0B504460D465C
:1027C00000200021092D11DDE068A5F10A0606EBC5
:1027D0004607072606FA07F18843A5F10A0606EB25
:1027E000460603FA06F10843E0600CE0206905EBB9
:1027F0004507072606FA07F1884305EB450603FA65
:1028000006F108432061072A0FDA606B561E06EBBB
:1028100086071F2606FA07F18843561E06EB860632
:1028200005FA06F10843606322E00D2A0FDA206BF7
:10283000D61F06EB86071F2606FA07F18843D61F28
:1028400006EB860605FA06F10843206310E0E06A0D
:10285000A2F10D0606EB86071F2606FA07F188434C
:10286000A2F10D0606EB860605FA06F10843E062C2
:10287000F0BD21B1826842F48012826003E0826878
:1028800022F48012826070470146C86C80B27047A3
:1028900066484C300068704721B1426842F480625B
:1028A000426003E0426822F480624260704721B1D6
:1028B000426842F48052426003E0426822F480524F
:1028C000426070470A460021816821F4E0411143CB
:1028D0008160704721B1826842F40042826003E067
:1028E000826822F400428260704721B1826842F41B
:1028F0000212826003E0826822F402128260704752
:10290000014600208A6812F4001F01D0012000E077
:1029100000207047F0B5044615460020002200262E
:10292000092911DDE068A1F10A0707EB470C072729
:1029300007FA0CF29043A1F10A0707EB470703FAE5
:1029400007F21043E0600CE0206901EB410C07271F
:1029500007FA0CF2904301EB410703FA07F2104328
:102960002061A06BC0F30156EF1C06F1010CA7EB30
:102970000C0707EB870C1F2707FA0CF29043EF1C9C
:1029800006F1010CA7EB0C0707EB870701FA07F22A
:102990001043A063F0BD10B50A4600210023816BEF
:1029A00021F44011531E41EA0351816310BD08B563
:1029B000002300930090009B0B440093009B1A603F
:1029C00008BD08B5024600200090009201F12800E1
:1029D000009B184400900098006880B208BD0A4629
:1029E00000214168164B1940114341607047416214
:1029F000826270470A460021416821F01F0111439D
:102A00004160704740B109490831096841F400014B
:102A1000064A0832116007E004490831096821F4C8
:102A20000001024A08321160704700000024014092
:102A300000280140003C0140FFFEF0FFFDF7F1FFE0
:102A4000FFFD3FFF0246002013680B4201D001202A
:102A500000E000207047CA430260704770B502462C
:102A60000020002300240B125568CEB205EA0604AC
:102A700015681D4202D00CB1012000E0002070BD9D
:102A800000220A12D3430360704700000146322936
:102A900000DA09B9062070470846FCE770B502461F
:102AA0000B46FF25FF261846FFF7F0FF034609E017
:102AB00012F8010B80EA06040648005D80EA05066C
:102AC0000548055D1800A3F101018BB2F0D146EA7B
:102AD000052070BDEE3C0008EE3D0008FD48FE49B3
:102AE0004860FE488860FE48C860FE48FE4988612C
:102AF000FE48C861FE480862FE480865801E4865B9
:102B000070471FB501210220FEF72BFCFA48008810
:102B100000EB80004FF6FF7101EA4000ADF80800BD
:102B20004FF4E150ADF804000020ADF80A00ADF814
:102B3000060001A9F148FEF747FF01221146EF48C0
:102B4000FFF7B9FA1D208DF8000003208DF8010071
:102B500001208DF802008DF803006846FEF775F835
:102B60001FBD10B586B00446012144F20400FEF7F3
:102B7000EBFB4FF40070ADF8140003208DF8160045
:102B800018208DF8170005A9DD48FEF727F94FF446
:102B90008060ADF8140004208DF8170005A9D8480E
:102BA000FEF71CF90220ADF8140010208DF8170074
:102BB00003208DF8160005A9D148FEF70FF9012171
:102BC0008803FEF7E8FB00214FF48040FEF7E3FBAB
:102BD00001940020ADF80800ADF80A00ADF80C0033
:102BE000ADF810000C20ADF80E0001A9C548FEF7A5
:102BF00056FC25208DF8000003208DF801000020F0
:102C00008DF8020001208DF803006846FEF71DF8DC
:102C1000012240F22551BB48FEF7D9FC0121B948F9
:102C2000FEF7C9FC0020B8490860FFF76AFFFFF70C
:102C300055FF06B010BD70B504460D460120B249DF
:102C400008600BE000BF8021AE48FEF78FFD002832
:102C5000F9D014F8011BAB48FEF71AFD2800A5F1C6
:102C60000101CDB2EED100BF4021A648FEF77EFDA6
:102C70000028F9D070BD10B540F22551A148FEF7EB
:102C80008BFDF0B19F48FEF707FDC4B29F48008856
:102C900040F2FF71884214DA9D489C4909884454E7
:102CA0009A480088401C9949088001219348FFF701
:102CB000C1FC00219148FFF777FC01218F48FFF705
:102CC000DFF910BD10B501218C48FFF7A2FC60B1FF
:102CD00001218A48FFF7AEFC00218848FFF7D0F9B0
:102CE0000120894908608B49087010BD10B58848DB
:102CF00040798749097940EA012087490880874857
:102D000000880988084464284FDA002423E007205B
:102D100000EB44007E49085C000280490988214498
:102D20006D4A52F8211008807C48008820441146E2
:102D300051F820000088082101EB4401744A515CDD
:102D400040EA0120754909882144634A52F821105C
:102D50000880601CC4B2704800888442D7DB6C488D
:102D600000786F4908706A484078487068488078F1
:102D700088706748C078C8706548007908716448F1
:102D80004079487106216648FFF788FE654908804A
:102D9000084600786249887162480088000AC87154
:102DA00008215F48FFF747FF0EE0594800785C496B
:102DB00008705748407840F08000487002208870C2
:102DC00003215748FFF737FF10BD10B55048007971
:102DD00000024149514A128851F8221008803E48A9
:102DE0004E49098850F8210000884949497908432B
:102DF00039494A4A128851F822100880444800781C
:102E00004749087042484078487041488078887047
:102E10003F48C078C8703E48007908713C48407906
:102E2000487106213E48FFF739FE3E4908800846B2
:102E300000783B4988713B480088000AC871082126
:102E40003748FFF7F8FE10BD10B5314840793049DA
:102E5000097940EA01203049088030480088098813
:102E6000084464287FDA2A4800782D4908702848E9
:102E700040784870284800784006000E887000248A
:102E800019E0264800882044174951F8200000889E
:102E9000000A032101EB4401214A50541F480088D5
:102EA0002044114951F820000078042101EB44012D
:102EB0005054601CC4B2184800888442E1DB1648B4
:102EC0000088032202EB400081B21548FFF7E6FDBF
:102ED000144929E06E020020C8160020720200206A
:102EE0007002002032000020581800203800002016
:102EF000360000200A000020660200200004004086
:102F0000000801400038014084012142680200208D
:102F1000A80300206A02002076020020740200202C
:102F2000A80B002078020020088008460178A748F6
:102F30000088032202EB4000A54A1154A5480088EE
:102F4000010AA2480088042202EB4000A04A115462
:102F50009E480078052202EB4000C1B29C48FFF772
:102F60006AFE0FE0FFE79C480078994908709A488C
:102F7000407840F080004870022088700321944817
:102F8000FFF759FE10BD10B5934840799249097971
:102F900040EA01208D49088090480088098808444B
:102FA000642853DA8C480078894908708A48407848
:102FB0004870864800784006000E8870002419E0AA
:102FC000864800882044864951F820000088000A7D
:102FD000032101EB44017E4A50548048008820447C
:102FE0007F4951F820000078042101EB440150543E
:102FF000601CC4B2754800888442E1DB73480088D5
:10300000032202EB400081B27148FFF747FD71498E
:103010000880084601786D480088032202EB4000D2
:103020006B4A11546B480088010A684800880422E2
:1030300002EB4000664A115464480078052202EB16
:103040004000C1B26248FFF7F6FD0EE0624800782A
:103050005F4908706048407840F080004870022066
:10306000887003215A48FFF7E6FD10BD10B55D4892
:10307000007801286FD1584800785B490978884268
:103080006AD15548407801281BD05348407802281F
:1030900017D051484078032813D04F48407804286F
:1030A0000FD04D48407805280BD04B484078062873
:1030B00007D0494840780F2803D047484078102867
:1030C0006DD14548C0784449897840EA0120434998
:1030D000088008460088642851DA44480088801E29
:1030E00081B23D48FFF7DAFC3A4908803F48008842
:1030F000801E3949095C3D480088401E364A105CF4
:1031000041EA002433480088A04228D11046407884
:10311000052812D008DC01280ED002280BD0032885
:103120000DD0042819D10DE006280ED00F2805D0A7
:10313000102812D10CE011E010E00FE00EE0FFF7D4
:1031400022FF0BE0FFF780FE08E0FFF73EFE05E000
:10315000FFF7CCFD02E038E030E000BF2EE01E4873
:1031600000781B4908701C48407840F08000487087
:103170000420887003211648FFF75DFD1EE0164805
:103180000078134908701448407840F08000487077
:103190000220887003210E48FFF74DFD0EE00E4817
:1031A00000780B4908700C48407840F08000487067
:1031B0000120887003210648FFF73DFD00200949E2
:1031C00008700A4908800A49086010BD760200208C
:1031D000A80B002078020020A80300207402002021
:1031E000C81600206A020020650200206802002044
:1031F00084012142032A40F2308010F0030C00F0D9
:10320000158011F8013BBCF1020F624498BF11F820
:1032100001CB00F8013B38BF11F8013BA2F10402D9
:1032200098BF00F801CB38BF00F8013B11F0030351
:1032300000F04A80083AC0F0088051F8043B083A90
:1032400051F804CBA0E80810F5E7121D5CBF51F857
:10325000043B40F8043BAFF30080D20724BF11F8D1
:10326000013B11F801CB48BF11F8012B24BF00F836
:10327000013B00F801CB48BF00F8012B70474FF02D
:1032800000020429C0F0128010F0030C00F05080FE
:10329000CCF1040CBCF1020F18BF00F8012BA8BF41
:1032A00020F8022BA1EB0C0100F042B85FEAC17CD0
:1032B00024BF00F8012B00F8012B48BF00F8012BB8
:1032C000704770477047704710B5203AC0F00B80C8
:1032D000B1E81850203AA0E81850B1E81850A0E81A
:1032E0001850BFF4F5AF5FEA027C24BFB1E8185074
:1032F000A0E8185044BF18C918C0BDE810405FEAE4
:10330000827C24BF51F8043B40F8043B08BF70475F
:10331000D20728BF31F8023B48BF11F8012B28BF64
:1033200020F8023B48BF00F8012B70474FF0000225
:1033300000B5134694469646203922BFA0E80C50AB
:10334000A0E80C50B1F12001BFF4F7AF090728BF86
:10335000A0E80C5048BF0CC05DF804EB890028BF02
:1033600040F8042B08BF704748BF20F8022B11F02B
:10337000804F18BF00F8012B7047754600F028F801
:10338000AE4605006946534620F00700854618B052
:1033900020B5FDF743FCBDE820404FF000064FF09C
:1033A00000074FF000084FF0000B21F00701AC467A
:1033B000ACE8C009ACE8C009ACE8C009ACE8C00999
:1033C0008D4670470446AFF300802046FCF7F5FEBB
:1033D00000487047E819002021F00042A2F1605235
:1033E000B2F5801F01F0004328BFD2F17F6C0BD9EA
:1033F0005FEA001C43EAC20242EB507018BF7047FC
:1034000028BF20F001007047B2F5801FBCBF1846EE
:1034100070474FEA410C1CF5001F02D2084600F02D
:10342000ECBB70B500F00CFA00000089FFF7F6BFA6
:103430004FF00040A0F58000704700002DE9C0412A
:1034400030B4DFF8A0C23CEA111418BF3CEA1314F0
:1034500000F0EC8081EA03051CEA111444EAD574FB
:1034600018BF1CEA131500F0C780A4EB05044FF049
:10347000004545EAC12145EAC32341EA505143EAE8
:10348000525304F17F74994204F500344FEAC0208E
:103490004FEAC22208BF904200F09C804FEA1365B9
:1034A0000FF24016765D4FEA134506FB05F7C7F1AC
:1034B000807706FB07F74FEAD737A7FB036876420A
:1034C000C8F58038A7FB06CE38BFA8F1010807FB76
:1034D00008E64FF0000EA6FB028CE6FB03CEDCF103
:1034E000000CCEF1004E38BFAEF1010EA6FB0C5819
:1034F0004FF000074FF00005E6FB0E87A1FB08C662
:10350000A0FB07CE16EB0E0645F10005E1FB0765B3
:1035100015F1E04E7EBFA4F580345FEA46066D41AA
:1035200016F1800745F100054FEA17274FEA0666B6
:1035300047EA0567A6F1DE46B6F1805F4FEA15253A
:103540001FD9384624F0010C05EBC471BCF1FE6FA5
:1035500001EB0C1102D8F0BCBDE8008124425CBF35
:1035600001F5801E9EEAC47F02D4F0BCBDE8008154
:10357000244238D4F0BCA1F1C041BDE8004100F0C4
:10358000ADB94FEAD22242EA43524FEAD323A7FB16
:1035900002864FEAD02040EA415007FB03661EEA4C
:1035A0000E0F4FEAD12105FB026658BFA6EB00566D
:1035B000B6EB00564FEA520E4EEAC37E18EB0E0EE3
:1035C00056EB530EBDD518EB02085E417F1C55F13A
:1035D0000005B6E74FF480154FF000074FF00006E6
:1035E0004FF00008ADE7F0BC4FF0000001F1C04122
:1035F00001F00041BDE8008111EA0C1F0CEA13152F
:1036000000D00CE013EA0C1F00F025804FF0000002
:10361000F0BC81EA030101F00041BDE80081F0BC8B
:10362000BDE8004181EA030100F058B9F0BCBDE8F3
:10363000004170B500F004F9097EFC3E00F007B8C7
:1036400081EA03014FF0000001F00041704781EA78
:10365000030100F043B9F0BCBDE800414FF00000A9
:1036600021497047FFFDFBF9F7F5F4F2F0EEEDEBC1
:10367000E9E8E6E4E3E1E0DEDDDBDAD8D7D5D4D370
:10368000D1D0CFCDCCCBCAC8C7C6C5C4C2C1C0BFBC
:10369000BEBDBCBBBAB9B8B7B6B5B4B3B2B1B0AFC2
:1036A000AEADACABAAA9A8A8A7A6A5A4A3A3A2A1A6
:1036B000A09F9F9E9D9C9C9B9A9999989797969561
:1036C00095949393929191908F8F8E8E8D8C8C8BFD
:1036D0008B8A898988888787868585848483838285
:1036E000828181800000FF070000F87FDFF848C179
:1036F00070B51CEA111E1EBF1CEA13159EEA0C0FC2
:1037000095EA0C0F00F06F8081EA030423EA4C1362
:103710004EEAD47E21EA4C1141F4801143F4801327
:10372000AE44A1FB024CA0FB0365AEF17F7E3619CF
:1037300055EB0C05A1FB034C4CF10003A0FB021C54
:1037400016EB0C06654153F10003094218BF46F021
:10375000010613F4007F0BD14FEA03314FEA053025
:10376000340341EA155140EA16506FF003020AE0B3
:103770004FEAC3214FEAC520F40241EA555140EA1D
:1037800056506FF0020202EB2E4201EB025585EA21
:10379000CE710AD05FEA440C18BF24F0004450F107
:1037A000000041F1000120EAD47040F2FE7C624545
:1037B00000D270BDA84214BF4FF080444FF0404487
:1037C000002E08BF0024BEF1806FA8BFA1F1C04148
:1037D000BDE8704080F282804FF0000001F1C041EE
:1037E00001F0004170479EEA0C0F0CEA131518BF58
:1037F00095EA0C0F06D04FF0000081EA030E0EF0A0
:10380000004170BD00F01CF88900013E00F007B8CF
:1038100000F009B84FEA430C5FEA5C5C08D081EA2B
:10382000030100F05BB84FEA410C5FEA5C5CF6D143
:103830004FF00000014970470000FF070000F87FCB
:103840000EF1020E2EF0030E5EF8046B364205D424
:10385000012A43EB030515F5001F12D8012841EB9F
:10386000010C1CF5001F0CD80ED14FEAD17C15F5C8
:10387000001F0CEB4C0C0CF1020C08BF4CEBD37C82
:1038800004E04FF0080C01E04FEAD37C0CEB4C0550
:1038900026FA05F606F00706B6F1040C06D20EEB82
:1038A000860CBDE870404CF0010C6047DFE80CF07E
:1038B000090B02024FF000414FF00000A1F500217A
:1038C00070BD19461046012851EB010418BFD4F50C
:1038D000001484BF002001F0004170BD0808A0F56D
:1038E00000114FEA3101704743004FEAD30C4FEA11
:1038F0003C0C43401FBF40070CF1605113F0FE4FDA
:1039000070471CF0006F03D100200CF0004170479D
:103910000CF0004343EA507010B540EACC0000F0D0
:1039200026F900BF000000924FEA0001FFF7D6BF62
:103930004FF000414FF00000A1F50021704700005A
:1039400090EA010F48BF81F0004100F16281421A04
:103950003CBF801A89184FEAD0524FF07F4C1CEAC6
:10396000410FA2EBD15318BF9CEA026F00F03B80DD
:103970004FF0004C4CEA00204CEA012121FA03FCF4
:1039800010EB0C0C1ED202F1FF325FEA1C2040EB60
:10399000C25038BF70471CF07F0F4FEA400C18BF71
:1039A000BCF17F4F38BF7047C3F12003994008BF77
:1039B00020F00100BCF17F4F38BF7047A0F1C0403C
:1039C00000F01BB94FEA3C00000A40EBC25028BF90
:1039D0001CF0FF0F4FEA400CE6D018BFBCF17F4F40
:1039E00038BF7047EAE79CEA026F05D010EA5C0F27
:1039F00008BF00F00040704710B500F0B8F800BFF5
:103A000064FBBE3EC10DD1F19E0206DB4FEA0023EE
:103A100043F0004323FA02F07047004207D54FEA13
:103A20004001B1F1FE4F02D24FF00000704710B5D7
:103A300000F09DF849922480002070476FEA200032
:103A400070470000B0FA80F310FA03F2C3F19D034F
:103A50000AD0D90501EB1220530638BF704700F198
:103A6000010008BF20F00100704700004FF47F0CF8
:103A70001CEAD0121EBF1CEAD11392EA0C0F93EA83
:103A80000C0F00F0478090EA010F48BF42F48072AB
:103A90004FF0004C4CEA00204CEA012102EB0302FB
:103AA000A0FB0113A2F50002002918BF43F0010397
:103AB0005B0028BF4FEA330342EB22425FEA132C3C
:103AC0004CEBC2502EBFBCEB436FB2F57C0F70477E
:103AD0004FEA036CBCF1004F08BF20F00100B2F5C3
:103AE0007C0F38BF70470BD582F0FF0212F5803F84
:103AF000C8BF704700F1C040D8BF00F00040704719
:103B000000F5000C5FEA4C0C48BF7047B0F1C040B4
:103B100000F073B890EA010F0CEAD11348BF42F4E9
:103B20008072624538BF634504D280EA010000F02C
:103B30000040704710B500F01AF800BF8900013E40
:103B400000F007B800F009B85FEA410C5FEA1C6CAE
:103B500008D080EA010000F050B85FEA400C5FEA4C
:103B60001C6CF6D14FF00040A0F5800070470EF1BC
:103B7000020E2EF0030E5EF8044B244204D44FEAEA
:103B80004102B2F17F4F11D84FEA4003B3F17F4FAA
:103B90000CD80ED14FEAD07CB2F17F4F0CEB4C0C1D
:103BA0000CF1020C08BF4CEBD17C04E04FF0080C88
:103BB00001E04FEAD17C0CEB4C0324FA03F404F04F
:103BC0000704B4F1040C06D20EEB840CBDE81040DF
:103BD0004CF0010C6047DFE80CF0070802024FF0E0
:103BE0000040A0F5800010BD0846420018BFD2F189
:103BF000807288BF00F0004010BDFF2141EAD05024
:103C0000C005704790EA010F48BF81F000413FF5C1
:103C10009EAE421A04D882F00042A0EB020011448A
:103C20004FEAD0524FF07F4C1CEA410FA2EBD15328
:103C300018BF9CEA026F4AD04FF0004C4CEA0020BB
:103C40004CEA012121FA03FCB0EB0C0C0FD412F06A
:103C5000FE0F36D05FEA4C001DD5001240EBC2507B
:103C600038BF70471CF03F0F18BF70470BE0A2F140
:103C700001025FEA1C2040EBC25038BF70471CF0C5
:103C80007F0F18BF7047C3F12003994014BF401E37
:103C900020F00100704780084FEA122308BF7047E8
:103CA000B0FA80FCA2EB0C02CCF1280C60FA0CF00C
:103CB00093EA122F04BF00EBC25070474FEAC37063
:103CC0007047130A5FEADC1008BF7047F6E79CEA0A
:103CD000026F04D010EA5C0F08BF0020704710B5D7
:103CE000FFF745FF40DFF63E81F00040704700C11E
:103CF000814001C0804101C0804100C1814001C0BC
:103D0000804100C1814000C1814001C0804101C0AB
:103D1000804100C1814000C1814001C0804100C19B
:103D2000814001C0804101C0804100C1814001C08B
:103D3000804100C1814000C1814001C0804100C17B
:103D4000814001C0804101C0804100C1814000C16B
:103D5000814001C0804101C0804100C1814001C05B
:103D6000804100C1814000C1814001C0804101C04B
:103D7000804100C1814000C1814001C0804100C13B
:103D8000814001C0804101C0804100C1814000C12B
:103D9000814001C0804101C0804100C1814001C01B
:103DA000804100C1814000C1814001C0804100C10B
:103DB000814001C0804101C0804100C1814001C0FB
:103DC000804100C1814000C1814001C0804101C0EB
:103DD000804100C1814000C1814001C0804100C1DB
:103DE000814001C0804101C0804100C1814000C0CC
:103DF000C101C30302C2C60607C705C5C404CC0C73
:103E00000DCD0FCFCE0E0ACACB0BC90908C8D818E2
:103E100019D91BDBDA1A1EDEDF1FDD1D1CDC14D4F2
:103E2000D515D71716D6D21213D311D1D010F03022
:103E300031F133F3F23236F6F737F53534F43CFC32
:103E4000FD3DFF3F3EFEFA3A3BFB39F9F83828E8E2
:103E5000E929EB2B2AEAEE2E2FEF2DEDEC2CE424B2
:103E600025E527E7E62622E2E323E12120E0A06022
:103E700061A163A3A26266A6A767A56564A46CACF2
:103E8000AD6DAF6F6EAEAA6A6BAB69A9A86878B862
:103E9000B979BB7B7ABABE7E7FBF7DBDBC7CB47472
:103EA00075B577B7B67672B2B373B17170B0509022
:103EB00091519353529296565797559594549C5CB2
:103EC0005D9D5F9F9E5E5A9A9B5B99595898884862
:103ED00049894B8B8A4A4E8E8F4F8D4D4C8C448432
:103EE0008545874746868242438341818040000062
:103EF000103F0008000000207C020000280100089C
:103F00006C4000087C020020CC1D000084010008E9
:103F1000D184A24A04100B01020304060708090217
:103F200003122A2602E5F05501F2F200FF00C0C19B
:103F300001C30302C2C60607C705C5C404CC0C0DE5
:103F4000CD0FCFCE0E0ACACB0BC90908C8D8181995
:103F5000D91BDBDA1A1EDEDF1FDD1D1CDC14D4D5F5
:103F600015D71716D6D21213D311D1D010F0303185
:103F7000F133F3F23236F6F737F53534F43CFCFD25
:103F80003DFF3F3EFEFA3A3BFB39F9F83828E8E9B5
:103F900029EB2B2AEAEE2E2FEF2DEDEC2CE4242535
:103FA000E527E7E62622E2E323E12120E0A06061A5
:103FB000A163A3A26266A6A767A56564A46CACAD65
:103FC0006DAF6F6EAEAA6A6BAB69A9A86878B8B915
:103FD00079BB7B7ABABE7E7FBF7DBDBC7CB4747575
:103FE000B577B7B67672B2B373B17170B0509091C5
:103FF000519353529296565797559594549C5C5DA5
:104000009D5F9F9E5E5A9A9B5B9959589888484934
:10401000894B8B8A4A4E8E8F4F8D4D4C8C448485B4
:104020004587474686824243834181801240280863
:10403000C1814001C0804104690C2908E918A91C0C
:10404000091A30091638093660092E70092F6001E7
:10405000142D0102030404280B06070809020406B4
:0C40600008802515720412021A0102816A
:04000005080000ED02
:00000001FF
